{"abi":[{"type":"constructor","inputs":[{"name":"_verifier","type":"address","internalType":"address"},{"name":"_proofOfHuman","type":"address","internalType":"address"},{"name":"_uri","type":"string","internalType":"string"}],"stateMutability":"nonpayable"},{"type":"function","name":"EXPECTED_PUBLIC_INPUTS","inputs":[],"outputs":[{"name":"","type":"uint256","internalType":"uint256"}],"stateMutability":"view"},{"type":"function","name":"MAX_EVENT_NAME_LENGTH","inputs":[],"outputs":[{"name":"","type":"uint256","internalType":"uint256"}],"stateMutability":"view"},{"type":"function","name":"balanceOf","inputs":[{"name":"account","type":"address","internalType":"address"},{"name":"id","type":"uint256","internalType":"uint256"}],"outputs":[{"name":"","type":"uint256","internalType":"uint256"}],"stateMutability":"view"},{"type":"function","name":"balanceOfBatch","inputs":[{"name":"accounts","type":"address[]","internalType":"address[]"},{"name":"ids","type":"uint256[]","internalType":"uint256[]"}],"outputs":[{"name":"","type":"uint256[]","internalType":"uint256[]"}],"stateMutability":"view"},{"type":"function","name":"collectionCreationFee","inputs":[],"outputs":[{"name":"","type":"uint256","internalType":"uint256"}],"stateMutability":"view"},{"type":"function","name":"collectionExists","inputs":[{"name":"eventName","type":"string","internalType":"string"},{"name":"pubkeyHash","type":"bytes32","internalType":"bytes32"}],"outputs":[{"name":"","type":"bool","internalType":"bool"}],"stateMutability":"view"},{"type":"function","name":"collectionIdToTokenId","inputs":[{"name":"","type":"bytes32","internalType":"bytes32"}],"outputs":[{"name":"","type":"uint256","internalType":"uint256"}],"stateMutability":"view"},{"type":"function","name":"collections","inputs":[{"name":"","type":"uint256","internalType":"uint256"}],"outputs":[{"name":"tokenId","type":"uint256","internalType":"uint256"},{"name":"eventName","type":"string","internalType":"string"},{"name":"pubkeyHash","type":"bytes32","internalType":"bytes32"},{"name":"totalMinted","type":"uint256","internalType":"uint256"},{"name":"createdAt","type":"uint256","internalType":"uint256"},{"name":"creator","type":"address","internalType":"address"}],"stateMutability":"view"},{"type":"function","name":"getCollection","inputs":[{"name":"tokenId","type":"uint256","internalType":"uint256"}],"outputs":[{"name":"","type":"tuple","internalType":"struct Mintmarks.EventCollection","components":[{"name":"tokenId","type":"uint256","internalType":"uint256"},{"name":"eventName","type":"string","internalType":"string"},{"name":"pubkeyHash","type":"bytes32","internalType":"bytes32"},{"name":"totalMinted","type":"uint256","internalType":"uint256"},{"name":"createdAt","type":"uint256","internalType":"uint256"},{"name":"creator","type":"address","internalType":"address"}]}],"stateMutability":"view"},{"type":"function","name":"getTokenIdByCollection","inputs":[{"name":"eventName","type":"string","internalType":"string"},{"name":"pubkeyHash","type":"bytes32","internalType":"bytes32"}],"outputs":[{"name":"","type":"uint256","internalType":"uint256"}],"stateMutability":"view"},{"type":"function","name":"isApprovedForAll","inputs":[{"name":"account","type":"address","internalType":"address"},{"name":"operator","type":"address","internalType":"address"}],"outputs":[{"name":"","type":"bool","internalType":"bool"}],"stateMutability":"view"},{"type":"function","name":"isNullifierUsed","inputs":[{"name":"nullifier","type":"bytes32","internalType":"bytes32"}],"outputs":[{"name":"","type":"bool","internalType":"bool"}],"stateMutability":"view"},{"type":"function","name":"mint","inputs":[{"name":"proof","type":"bytes","internalType":"bytes"},{"name":"publicInputs","type":"bytes32[]","internalType":"bytes32[]"}],"outputs":[{"name":"tokenId","type":"uint256","internalType":"uint256"}],"stateMutability":"payable"},{"type":"function","name":"mintingFee","inputs":[],"outputs":[{"name":"","type":"uint256","internalType":"uint256"}],"stateMutability":"view"},{"type":"function","name":"name","inputs":[],"outputs":[{"name":"","type":"string","internalType":"string"}],"stateMutability":"pure"},{"type":"function","name":"nextTokenId","inputs":[],"outputs":[{"name":"","type":"uint256","internalType":"uint256"}],"stateMutability":"view"},{"type":"function","name":"owner","inputs":[],"outputs":[{"name":"","type":"address","internalType":"address"}],"stateMutability":"view"},{"type":"function","name":"proofOfHuman","inputs":[],"outputs":[{"name":"","type":"address","internalType":"contract ProofOfHuman"}],"stateMutability":"view"},{"type":"function","name":"renounceOwnership","inputs":[],"outputs":[],"stateMutability":"nonpayable"},{"type":"function","name":"safeBatchTransferFrom","inputs":[{"name":"from","type":"address","internalType":"address"},{"name":"to","type":"address","internalType":"address"},{"name":"ids","type":"uint256[]","internalType":"uint256[]"},{"name":"values","type":"uint256[]","internalType":"uint256[]"},{"name":"data","type":"bytes","internalType":"bytes"}],"outputs":[],"stateMutability":"nonpayable"},{"type":"function","name":"safeTransferFrom","inputs":[{"name":"from","type":"address","internalType":"address"},{"name":"to","type":"address","internalType":"address"},{"name":"id","type":"uint256","internalType":"uint256"},{"name":"value","type":"uint256","internalType":"uint256"},{"name":"data","type":"bytes","internalType":"bytes"}],"outputs":[],"stateMutability":"nonpayable"},{"type":"function","name":"setApprovalForAll","inputs":[{"name":"operator","type":"address","internalType":"address"},{"name":"approved","type":"bool","internalType":"bool"}],"outputs":[],"stateMutability":"nonpayable"},{"type":"function","name":"setCollectionCreationFee","inputs":[{"name":"newFee","type":"uint256","internalType":"uint256"}],"outputs":[],"stateMutability":"nonpayable"},{"type":"function","name":"setMintingFee","inputs":[{"name":"newFee","type":"uint256","internalType":"uint256"}],"outputs":[],"stateMutability":"nonpayable"},{"type":"function","name":"setTokenURI","inputs":[{"name":"tokenId","type":"uint256","internalType":"uint256"},{"name":"metadataURI","type":"string","internalType":"string"}],"outputs":[],"stateMutability":"nonpayable"},{"type":"function","name":"setURI","inputs":[{"name":"newuri","type":"string","internalType":"string"}],"outputs":[],"stateMutability":"nonpayable"},{"type":"function","name":"supportsInterface","inputs":[{"name":"interfaceId","type":"bytes4","internalType":"bytes4"}],"outputs":[{"name":"","type":"bool","internalType":"bool"}],"stateMutability":"view"},{"type":"function","name":"symbol","inputs":[],"outputs":[{"name":"","type":"string","internalType":"string"}],"stateMutability":"pure"},{"type":"function","name":"transferOwnership","inputs":[{"name":"newOwner","type":"address","internalType":"address"}],"outputs":[],"stateMutability":"nonpayable"},{"type":"function","name":"uri","inputs":[{"name":"tokenId","type":"uint256","internalType":"uint256"}],"outputs":[{"name":"","type":"string","internalType":"string"}],"stateMutability":"view"},{"type":"function","name":"usedNullifiers","inputs":[{"name":"","type":"bytes32","internalType":"bytes32"}],"outputs":[{"name":"","type":"bool","internalType":"bool"}],"stateMutability":"view"},{"type":"function","name":"verifier","inputs":[],"outputs":[{"name":"","type":"address","internalType":"contract IUltraVerifier"}],"stateMutability":"view"},{"type":"function","name":"withdraw","inputs":[],"outputs":[],"stateMutability":"nonpayable"},{"type":"event","name":"ApprovalForAll","inputs":[{"name":"account","type":"address","indexed":true,"internalType":"address"},{"name":"operator","type":"address","indexed":true,"internalType":"address"},{"name":"approved","type":"bool","indexed":false,"internalType":"bool"}],"anonymous":false},{"type":"event","name":"CollectionCreated","inputs":[{"name":"tokenId","type":"uint256","indexed":true,"internalType":"uint256"},{"name":"eventName","type":"string","indexed":false,"internalType":"string"},{"name":"creator","type":"address","indexed":false,"internalType":"address"}],"anonymous":false},{"type":"event","name":"CollectionCreationFeeUpdated","inputs":[{"name":"newFee","type":"uint256","indexed":false,"internalType":"uint256"}],"anonymous":false},{"type":"event","name":"Minted","inputs":[{"name":"minter","type":"address","indexed":true,"internalType":"address"},{"name":"tokenId","type":"uint256","indexed":true,"internalType":"uint256"},{"name":"emailNullifier","type":"bytes32","indexed":true,"internalType":"bytes32"},{"name":"humanNullifier","type":"uint256","indexed":false,"internalType":"uint256"},{"name":"eventName","type":"string","indexed":false,"internalType":"string"}],"anonymous":false},{"type":"event","name":"MintingFeeUpdated","inputs":[{"name":"newFee","type":"uint256","indexed":false,"internalType":"uint256"}],"anonymous":false},{"type":"event","name":"OwnershipTransferred","inputs":[{"name":"previousOwner","type":"address","indexed":true,"internalType":"address"},{"name":"newOwner","type":"address","indexed":true,"internalType":"address"}],"anonymous":false},{"type":"event","name":"TransferBatch","inputs":[{"name":"operator","type":"address","indexed":true,"internalType":"address"},{"name":"from","type":"address","indexed":true,"internalType":"address"},{"name":"to","type":"address","indexed":true,"internalType":"address"},{"name":"ids","type":"uint256[]","indexed":false,"internalType":"uint256[]"},{"name":"values","type":"uint256[]","indexed":false,"internalType":"uint256[]"}],"anonymous":false},{"type":"event","name":"TransferSingle","inputs":[{"name":"operator","type":"address","indexed":true,"internalType":"address"},{"name":"from","type":"address","indexed":true,"internalType":"address"},{"name":"to","type":"address","indexed":true,"internalType":"address"},{"name":"id","type":"uint256","indexed":false,"internalType":"uint256"},{"name":"value","type":"uint256","indexed":false,"internalType":"uint256"}],"anonymous":false},{"type":"event","name":"URI","inputs":[{"name":"value","type":"string","indexed":false,"internalType":"string"},{"name":"id","type":"uint256","indexed":true,"internalType":"uint256"}],"anonymous":false},{"type":"event","name":"Withdrawn","inputs":[{"name":"recipient","type":"address","indexed":true,"internalType":"address"},{"name":"amount","type":"uint256","indexed":false,"internalType":"uint256"}],"anonymous":false},{"type":"error","name":"AlreadyClaimed","inputs":[]},{"type":"error","name":"ERC1155InsufficientBalance","inputs":[{"name":"sender","type":"address","internalType":"address"},{"name":"balance","type":"uint256","internalType":"uint256"},{"name":"needed","type":"uint256","internalType":"uint256"},{"name":"tokenId","type":"uint256","internalType":"uint256"}]},{"type":"error","name":"ERC1155InvalidApprover","inputs":[{"name":"approver","type":"address","internalType":"address"}]},{"type":"error","name":"ERC1155InvalidArrayLength","inputs":[{"name":"idsLength","type":"uint256","internalType":"uint256"},{"name":"valuesLength","type":"uint256","internalType":"uint256"}]},{"type":"error","name":"ERC1155InvalidOperator","inputs":[{"name":"operator","type":"address","internalType":"address"}]},{"type":"error","name":"ERC1155InvalidReceiver","inputs":[{"name":"receiver","type":"address","internalType":"address"}]},{"type":"error","name":"ERC1155InvalidSender","inputs":[{"name":"sender","type":"address","internalType":"address"}]},{"type":"error","name":"ERC1155MissingApprovalForAll","inputs":[{"name":"operator","type":"address","internalType":"address"},{"name":"owner","type":"address","internalType":"address"}]},{"type":"error","name":"EventNameTooLong","inputs":[]},{"type":"error","name":"InsufficientFee","inputs":[]},{"type":"error","name":"InsufficientMintingFee","inputs":[]},{"type":"error","name":"InvalidProof","inputs":[]},{"type":"error","name":"InvalidPublicInputs","inputs":[]},{"type":"error","name":"OwnableInvalidOwner","inputs":[{"name":"owner","type":"address","internalType":"address"}]},{"type":"error","name":"OwnableUnauthorizedAccount","inputs":[{"name":"account","type":"address","internalType":"address"}]},{"type":"error","name":"WithdrawFailed","inputs":[]}],"bytecode":{"object":"0x60c0604052662386f26fc1000060045566038d7ea4c68000600555600160065534801561002a575f5ffd5b5060405161285138038061285183398101604081905261004991610134565b3381610054816100a4565b506001600160a01b03811661008257604051631e4fbdf760e01b81525f600482015260240160405180910390fd5b61008b816100b4565b50506001600160a01b039182166080521660a052610343565b60026100b08282610289565b5050565b600380546001600160a01b038381166001600160a01b0319831681179093556040519116919082907f8be0079c531659141344cd1fd0a4f28419497f9722a3daafe3b4186f6b6457e0905f90a35050565b80516001600160a01b038116811461011b575f5ffd5b919050565b634e487b7160e01b5f52604160045260245ffd5b5f5f5f60608486031215610146575f5ffd5b61014f84610105565b925061015d60208501610105565b60408501519092506001600160401b03811115610178575f5ffd5b8401601f81018613610188575f5ffd5b80516001600160401b038111156101a1576101a1610120565b604051601f8201601f19908116603f011681016001600160401b03811182821017156101cf576101cf610120565b6040528181528282016020018810156101e6575f5ffd5b8160208401602083015e5f602083830101528093505050509250925092565b600181811c9082168061021957607f821691505b60208210810361023757634e487b7160e01b5f52602260045260245ffd5b50919050565b601f82111561028457805f5260205f20601f840160051c810160208510156102625750805b601f840160051c820191505b81811015610281575f815560010161026e565b50505b505050565b81516001600160401b038111156102a2576102a2610120565b6102b6816102b08454610205565b8461023d565b6020601f8211600181146102e8575f83156102d15750848201515b5f19600385901b1c1916600184901b178455610281565b5f84815260208120601f198516915b8281101561031757878501518255602094850194600190920191016102f7565b508482101561033457868401515f19600387901b60f8161c191681555b50505050600190811b01905550565b60805160a0516124df6103725f395f81816105e3015261076a01525f81816103a1015261084101526124df5ff3fe6080604052600436106101e5575f3560e01c80635a64ad9511610108578063a22cb4651161009d578063e985e9c51161006d578063e985e9c5146105b3578063ee0ac41b146105d2578063f242432a14610605578063f2fde38b14610624578063fdbda0ec14610643575f5ffd5b8063a22cb4651461053f578063a4f64e7e1461055e578063d23a7ab114610589578063e36a46981461059e575f5ffd5b806375794a3c116100d857806375794a3c146104c35780638c5079bc146104d85780638da5cb5b146104f757806395d89b4114610514575f5ffd5b80635a64ad95146104665780636008a6c21461047b57806360bce4b414610490578063715018a6146104af575f5ffd5b8063206137aa1161017e5780632eb2c2d61161014e5780632eb2c2d6146103db5780633ccfd60b146103fa5780634e1273f41461040e5780635a1f3c281461043a575f5ffd5b8063206137aa1461031557806322dc7b4c14610343578063238a4709146103715780632b7ac3f314610390575f5ffd5b80630b037a55116101b95780630b037a55146102a55780630cc8f63e146102b85780630e89341c146102d7578063162094c4146102f6575f5ffd5b8062fdd58e146101e957806301ffc9a71461021b57806302fe53051461024a57806306fdde031461026b575b5f5ffd5b3480156101f4575f5ffd5b50610208610203366004611a79565b610674565b6040519081526020015b60405180910390f35b348015610226575f5ffd5b5061023a610235366004611ab6565b61069b565b6040519015158152602001610212565b348015610255575f5ffd5b50610269610264366004611b86565b6106ea565b005b348015610276575f5ffd5b506040805180820190915260098152684d696e746d61726b7360b81b60208201525b6040516102129190611bed565b6102086102b3366004611bff565b6106fe565b3480156102c3575f5ffd5b506102086102d2366004611cc3565b610a2c565b3480156102e2575f5ffd5b506102986102f1366004611d04565b610a6d565b348015610301575f5ffd5b50610269610310366004611d1b565b610b27565b348015610320575f5ffd5b5061023a61032f366004611d04565b60096020525f908152604090205460ff1681565b34801561034e575f5ffd5b5061023a61035d366004611d04565b5f9081526009602052604090205460ff1690565b34801561037c575f5ffd5b5061026961038b366004611d04565b610b4b565b34801561039b575f5ffd5b506103c37f000000000000000000000000000000000000000000000000000000000000000081565b6040516001600160a01b039091168152602001610212565b3480156103e6575f5ffd5b506102696103f5366004611dea565b610b8f565b348015610405575f5ffd5b50610269610bfb565b348015610419575f5ffd5b5061042d610428366004611e96565b610cd7565b6040516102129190611f87565b348015610445575f5ffd5b50610459610454366004611d04565b610da1565b6040516102129190611f99565b348015610471575f5ffd5b5061020860055481565b348015610486575f5ffd5b5061020861010081565b34801561049b575f5ffd5b506102696104aa366004611d04565b610ecb565b3480156104ba575f5ffd5b50610269610f08565b3480156104ce575f5ffd5b5061020860065481565b3480156104e3575f5ffd5b5061023a6104f2366004611cc3565b610f1b565b348015610502575f5ffd5b506003546001600160a01b03166103c3565b34801561051f575f5ffd5b506040805180820190915260038152624d524b60e81b6020820152610298565b34801561054a575f5ffd5b50610269610559366004612007565b610f5e565b348015610569575f5ffd5b50610208610578366004611d04565b60076020525f908152604090205481565b348015610594575f5ffd5b5061020860045481565b3480156105a9575f5ffd5b5061020861014481565b3480156105be575f5ffd5b5061023a6105cd36600461203c565b610f6d565b3480156105dd575f5ffd5b506103c37f000000000000000000000000000000000000000000000000000000000000000081565b348015610610575f5ffd5b5061026961061f36600461206d565b610f9a565b34801561062f575f5ffd5b5061026961063e3660046120c0565b610ff9565b34801561064e575f5ffd5b5061066261065d366004611d04565b611033565b604051610212969594939291906120d9565b5f818152602081815260408083206001600160a01b03861684529091529020545b92915050565b5f6001600160e01b03198216636cdb3d1360e11b14806106cb57506001600160e01b031982166303a24d0760e21b145b8061069557506301ffc9a760e01b6001600160e01b0319831614610695565b6106f26110f7565b6106fb81611124565b50565b5f6101448214610721576040516319dcebfb60e21b815260040160405180910390fd5b5f83835f8181106107345761073461211f565b9050602002013590505f848460018181106107515761075161211f565b9050602002013590505f6107658686611130565b90505f7f00000000000000000000000000000000000000000000000000000000000000006001600160a01b031663b315c5658433856040518463ffffffff1660e01b81526004016107b893929190612133565b6020604051808303815f875af11580156107d4573d5f5f3e3d5ffd5b505050506040513d601f19601f820116820180604052508101906107f89190612165565b5f8481526009602052604090205490915060ff161561082a57604051630c8d9eab60e31b815260040160405180910390fd5b604051633a94343960e21b81526001600160a01b037f0000000000000000000000000000000000000000000000000000000000000000169063ea50d0e49061087c908c908c908c908c9060040161217c565b602060405180830381865afa158015610897573d5f5f3e3d5ffd5b505050506040513d601f19601f820116820180604052508101906108bb91906121de565b6108d8576040516309bde33960e01b815260040160405180910390fd5b5f82856040516020016108ec9291906121f9565b60408051601f1981840301815291815281516020928301205f8181526007909352908220549750915086900361095e5760055460045461092c9190612227565b34101561094b5760405162976f7560e21b815260040160405180910390fd5b61095783868333611226565b95506109a3565b600554341015610981576040516322c2c64560e01b815260040160405180910390fd5b5f86815260086020526040812060030180549161099d8361223a565b91905055505b5f848152600960209081526040808320805460ff1916600190811790915581519283019091529181526109da913391899190611331565b8386336001600160a01b03167f92c0ff9736c2236271fcf43a5d8f3bf9bba18d3be386d5662941d788676487e28587604051610a17929190612252565b60405180910390a45050505050949350505050565b5f5f8383604051602001610a419291906121f9565b60408051808303601f1901815291815281516020928301205f9081526007909252902054949350505050565b5f818152600a6020526040812080546060929190610a8a9061226a565b80601f0160208091040260200160405190810160405280929190818152602001828054610ab69061226a565b8015610b015780601f10610ad857610100808354040283529160200191610b01565b820191905f5260205f20905b815481529060010190602001808311610ae457829003601f168201915b505050505090505f81511115610b175792915050565b610b208361138c565b9392505050565b610b2f6110f7565b5f828152600a60205260409020610b4682826122e6565b505050565b610b536110f7565b60058190556040518181527f9a7c33ea6df1d6d7f2348eda287c9493ced6ba1e043a8e681f50075dc9cdd4ca906020015b60405180910390a150565b336001600160a01b0386168114801590610bb05750610bae8682610f6d565b155b15610be65760405163711bec9160e11b81526001600160a01b038083166004830152871660248201526044015b60405180910390fd5b610bf3868686868661141e565b505050505050565b610c036110f7565b475f610c176003546001600160a01b031690565b6001600160a01b0316826040515f6040518083038185875af1925050503d805f8114610c5e576040519150601f19603f3d011682016040523d82523d5f602084013e610c63565b606091505b5050905080610c8557604051631d42c86760e21b815260040160405180910390fd5b6003546001600160a01b03166001600160a01b03167f7084f5476618d8e60b11ef0d7d3f06914655adb8793e28ff7f018d4c76d505d583604051610ccb91815260200190565b60405180910390a25050565b60608151835114610d085781518351604051635b05999160e01b815260048101929092526024820152604401610bdd565b5f83516001600160401b03811115610d2257610d22611ad1565b604051908082528060200260200182016040528015610d4b578160200160208202803683370190505b5090505f5b8451811015610d9957602080820286010151610d7490602080840287010151610674565b828281518110610d8657610d8661211f565b6020908102919091010152600101610d50565b509392505050565b610dde6040518060c001604052805f8152602001606081526020015f81526020015f81526020015f81526020015f6001600160a01b031681525090565b60085f8381526020019081526020015f206040518060c00160405290815f8201548152602001600182018054610e139061226a565b80601f0160208091040260200160405190810160405280929190818152602001828054610e3f9061226a565b8015610e8a5780601f10610e6157610100808354040283529160200191610e8a565b820191905f5260205f20905b815481529060010190602001808311610e6d57829003601f168201915b50505091835250506002820154602082015260038201546040820152600482015460608201526005909101546001600160a01b031660809091015292915050565b610ed36110f7565b60048190556040518181527f2779285b0216c463dcdd7df06d5d13e09461e3d873c35f65199be770dfe831ae90602001610b84565b610f106110f7565b610f195f611483565b565b5f5f8383604051602001610f309291906121f9565b60408051808303601f1901815291815281516020928301205f90815260079092529020541515949350505050565b610f693383836114d4565b5050565b6001600160a01b039182165f90815260016020908152604080832093909416825291909152205460ff1690565b336001600160a01b0386168114801590610fbb5750610fb98682610f6d565b155b15610fec5760405163711bec9160e11b81526001600160a01b03808316600483015287166024820152604401610bdd565b610bf38686868686611568565b6110016110f7565b6001600160a01b03811661102a57604051631e4fbdf760e01b81525f6004820152602401610bdd565b6106fb81611483565b60086020525f9081526040902080546001820180549192916110549061226a565b80601f01602080910402602001604051908101604052809291908181526020018280546110809061226a565b80156110cb5780601f106110a2576101008083540402835291602001916110cb565b820191905f5260205f20905b8154815290600101906020018083116110ae57829003601f168201915b50505050600283015460038401546004850154600590950154939491939092506001600160a01b031686565b6003546001600160a01b03163314610f195760405163118cdaa760e01b8152336004820152602401610bdd565b6002610f6982826122e6565b60605f83836101438181106111475761114761211f565b905060200201355f1c90506101008111156111755760405163d4ce5a0560e01b815260040160405180910390fd5b5f816001600160401b0381111561118e5761118e611ad1565b6040519080825280601f01601f1916602001820160405280156111b8576020820181803683370190505b5090505f5b8281101561121d5785856111d2836043612227565b8181106111e1576111e161211f565b905060200201355f1c60f81b8282815181106111ff576111ff61211f565b60200101906001600160f81b03191690815f1a9053506001016111bd565b50949350505050565b600680545f91826112368361223a565b909155505f848152600760209081526040808320849055805160c0810182528481528083018a81528183018a90526001606083018190524260808401526001600160a01b03891660a08401528686526008909452919093208351815590519394509192908201906112a790826122e6565b506040828101516002830155606083015160038301556080830151600483015560a090920151600590910180546001600160a01b0319166001600160a01b039092169190911790555181907f28264f4036324f7af9abd02761740048265f0c980737a3f97365dad3162cbe659061132190889086906123a0565b60405180910390a2949350505050565b6001600160a01b03841661135a57604051632bfa23e760e11b81525f6004820152602401610bdd565b60408051600180825260208201869052818301908152606082018590526080820190925290610bf35f878484876115f4565b60606002805461139b9061226a565b80601f01602080910402602001604051908101604052809291908181526020018280546113c79061226a565b80156114125780601f106113e957610100808354040283529160200191611412565b820191905f5260205f20905b8154815290600101906020018083116113f557829003601f168201915b50505050509050919050565b6001600160a01b03841661144757604051632bfa23e760e11b81525f6004820152602401610bdd565b6001600160a01b03851661146f57604051626a0d4560e21b81525f6004820152602401610bdd565b61147c85858585856115f4565b5050505050565b600380546001600160a01b038381166001600160a01b0319831681179093556040519116919082907f8be0079c531659141344cd1fd0a4f28419497f9722a3daafe3b4186f6b6457e0905f90a35050565b6001600160a01b0382166114fc5760405162ced3e160e81b81525f6004820152602401610bdd565b6001600160a01b038381165f81815260016020908152604080832094871680845294825291829020805460ff191686151590811790915591519182527f17307eab39ab6107e8899845ad3d59bd9653f200f220920489ca2b5937696c31910160405180910390a3505050565b6001600160a01b03841661159157604051632bfa23e760e11b81525f6004820152602401610bdd565b6001600160a01b0385166115b957604051626a0d4560e21b81525f6004820152602401610bdd565b604080516001808252602082018690528183019081526060820185905260808201909252906115eb87878484876115f4565b50505050505050565b61160085858585611647565b6001600160a01b0384161561147c57825133906001036116395760208481015190840151611632838989858589611856565b5050610bf3565b610bf3818787878787611977565b80518251146116765781518151604051635b05999160e01b815260048101929092526024820152604401610bdd565b335f5b8351811015611778576020818102858101820151908501909101516001600160a01b0388161561172a575f828152602081815260408083206001600160a01b038c16845290915290205481811015611704576040516303dee4c560e01b81526001600160a01b038a166004820152602481018290526044810183905260648101849052608401610bdd565b5f838152602081815260408083206001600160a01b038d16845290915290209082900390555b6001600160a01b0387161561176e575f828152602081815260408083206001600160a01b038b16845290915281208054839290611768908490612227565b90915550505b5050600101611679565b5082516001036117f85760208301515f906020840151909150856001600160a01b0316876001600160a01b0316846001600160a01b03167fc3d58168c5ae7397731d063d5bbf3d657854427343f4c083240f7aacaa2d0f6285856040516117e9929190918252602082015260400190565b60405180910390a4505061147c565b836001600160a01b0316856001600160a01b0316826001600160a01b03167f4a39dc06d4c0dbc64b70af90fd698a233a518aa5d07e595d983b8c0526c8f7fb86866040516118479291906123c9565b60405180910390a45050505050565b6001600160a01b0384163b15610bf35760405163f23a6e6160e01b81526001600160a01b0385169063f23a6e619061189a90899089908890889088906004016123ed565b6020604051808303815f875af19250505080156118d4575060408051601f3d908101601f191682019092526118d191810190612431565b60015b61193b573d808015611901576040519150601f19603f3d011682016040523d82523d5f602084013e611906565b606091505b5080515f0361193357604051632bfa23e760e11b81526001600160a01b0386166004820152602401610bdd565b805160208201fd5b6001600160e01b0319811663f23a6e6160e01b146115eb57604051632bfa23e760e11b81526001600160a01b0386166004820152602401610bdd565b6001600160a01b0384163b15610bf35760405163bc197c8160e01b81526001600160a01b0385169063bc197c81906119bb908990899088908890889060040161244c565b6020604051808303815f875af19250505080156119f5575060408051601f3d908101601f191682019092526119f291810190612431565b60015b611a22573d808015611901576040519150601f19603f3d011682016040523d82523d5f602084013e611906565b6001600160e01b0319811663bc197c8160e01b146115eb57604051632bfa23e760e11b81526001600160a01b0386166004820152602401610bdd565b80356001600160a01b0381168114611a74575f5ffd5b919050565b5f5f60408385031215611a8a575f5ffd5b611a9383611a5e565b946020939093013593505050565b6001600160e01b0319811681146106fb575f5ffd5b5f60208284031215611ac6575f5ffd5b8135610b2081611aa1565b634e487b7160e01b5f52604160045260245ffd5b604051601f8201601f191681016001600160401b0381118282101715611b0d57611b0d611ad1565b604052919050565b5f82601f830112611b24575f5ffd5b8135602083015f5f6001600160401b03841115611b4357611b43611ad1565b50601f8301601f1916602001611b5881611ae5565b915050828152858383011115611b6c575f5ffd5b828260208301375f92810160200192909252509392505050565b5f60208284031215611b96575f5ffd5b81356001600160401b03811115611bab575f5ffd5b611bb784828501611b15565b949350505050565b5f81518084528060208401602086015e5f602082860101526020601f19601f83011685010191505092915050565b602081525f610b206020830184611bbf565b5f5f5f5f60408587031215611c12575f5ffd5b84356001600160401b03811115611c27575f5ffd5b8501601f81018713611c37575f5ffd5b80356001600160401b03811115611c4c575f5ffd5b876020828401011115611c5d575f5ffd5b6020918201955093508501356001600160401b03811115611c7c575f5ffd5b8501601f81018713611c8c575f5ffd5b80356001600160401b03811115611ca1575f5ffd5b8760208260051b8401011115611cb5575f5ffd5b949793965060200194505050565b5f5f60408385031215611cd4575f5ffd5b82356001600160401b03811115611ce9575f5ffd5b611cf585828601611b15565b95602094909401359450505050565b5f60208284031215611d14575f5ffd5b5035919050565b5f5f60408385031215611d2c575f5ffd5b8235915060208301356001600160401b03811115611d48575f5ffd5b611d5485828601611b15565b9150509250929050565b5f6001600160401b03821115611d7657611d76611ad1565b5060051b60200190565b5f82601f830112611d8f575f5ffd5b8135611da2611d9d82611d5e565b611ae5565b8082825260208201915060208360051b860101925085831115611dc3575f5ffd5b602085015b83811015611de0578035835260209283019201611dc8565b5095945050505050565b5f5f5f5f5f60a08688031215611dfe575f5ffd5b611e0786611a5e565b9450611e1560208701611a5e565b935060408601356001600160401b03811115611e2f575f5ffd5b611e3b88828901611d80565b93505060608601356001600160401b03811115611e56575f5ffd5b611e6288828901611d80565b92505060808601356001600160401b03811115611e7d575f5ffd5b611e8988828901611b15565b9150509295509295909350565b5f5f60408385031215611ea7575f5ffd5b82356001600160401b03811115611ebc575f5ffd5b8301601f81018513611ecc575f5ffd5b8035611eda611d9d82611d5e565b8082825260208201915060208360051b850101925087831115611efb575f5ffd5b6020840193505b82841015611f2457611f1384611a5e565b825260209384019390910190611f02565b945050505060208301356001600160401b03811115611f41575f5ffd5b611d5485828601611d80565b5f8151808452602084019350602083015f5b82811015611f7d578151865260209586019590910190600101611f5f565b5093949350505050565b602081525f610b206020830184611f4d565b60208152815160208201525f602083015160c06040840152611fbe60e0840182611bbf565b90506040840151606084015260608401516080840152608084015160a084015260018060a01b0360a08501511660c08401528091505092915050565b80151581146106fb575f5ffd5b5f5f60408385031215612018575f5ffd5b61202183611a5e565b9150602083013561203181611ffa565b809150509250929050565b5f5f6040838503121561204d575f5ffd5b61205683611a5e565b915061206460208401611a5e565b90509250929050565b5f5f5f5f5f60a08688031215612081575f5ffd5b61208a86611a5e565b945061209860208701611a5e565b9350604086013592506060860135915060808601356001600160401b03811115611e7d575f5ffd5b5f602082840312156120d0575f5ffd5b610b2082611a5e565b86815260c060208201525f6120f160c0830188611bbf565b604083019690965250606081019390935260808301919091526001600160a01b031660a09091015292915050565b634e487b7160e01b5f52603260045260245ffd5b8381526001600160a01b03831660208201526060604082018190525f9061215c90830184611bbf565b95945050505050565b5f60208284031215612175575f5ffd5b5051919050565b60408152836040820152838560608301375f60608583018101829052601f19601f8701168301838103820160208501529081018490526001600160fb1b038411156121c5575f5ffd5b8360051b80866080840137016080019695505050505050565b5f602082840312156121ee575f5ffd5b8151610b2081611ffa565b5f83518060208601845e9190910191825250602001919050565b634e487b7160e01b5f52601160045260245ffd5b8082018082111561069557610695612213565b5f6001820161224b5761224b612213565b5060010190565b828152604060208201525f611bb76040830184611bbf565b600181811c9082168061227e57607f821691505b60208210810361229c57634e487b7160e01b5f52602260045260245ffd5b50919050565b601f821115610b4657805f5260205f20601f840160051c810160208510156122c75750805b601f840160051c820191505b8181101561147c575f81556001016122d3565b81516001600160401b038111156122ff576122ff611ad1565b6123138161230d845461226a565b846122a2565b6020601f821160018114612345575f831561232e5750848201515b5f19600385901b1c1916600184901b17845561147c565b5f84815260208120601f198516915b828110156123745787850151825560209485019460019092019101612354565b508482101561239157868401515f19600387901b60f8161c191681555b50505050600190811b01905550565b604081525f6123b26040830185611bbf565b905060018060a01b03831660208301529392505050565b604081525f6123db6040830185611f4d565b828103602084015261215c8185611f4d565b6001600160a01b03868116825285166020820152604081018490526060810183905260a0608082018190525f9061242690830184611bbf565b979650505050505050565b5f60208284031215612441575f5ffd5b8151610b2081611aa1565b6001600160a01b0386811682528516602082015260a0604082018190525f9061247790830186611f4d565b82810360608401526124898186611f4d565b9050828103608084015261249d8185611bbf565b9897505050505050505056fea2646970667358221220390bcb085bd35ba30ba554eab7b4c096fd52c060e724acb45eececdb79bf914e64736f6c634300081c0033","linkReferences":{}},"methodIdentifiers":{"EXPECTED_PUBLIC_INPUTS()":"e36a4698","MAX_EVENT_NAME_LENGTH()":"6008a6c2","balanceOf(address,uint256)":"00fdd58e","balanceOfBatch(address[],uint256[])":"4e1273f4","collectionCreationFee()":"d23a7ab1","collectionExists(string,bytes32)":"8c5079bc","collectionIdToTokenId(bytes32)":"a4f64e7e","collections(uint256)":"fdbda0ec","getCollection(uint256)":"5a1f3c28","getTokenIdByCollection(string,bytes32)":"0cc8f63e","isApprovedForAll(address,address)":"e985e9c5","isNullifierUsed(bytes32)":"22dc7b4c","mint(bytes,bytes32[])":"0b037a55","mintingFee()":"5a64ad95","name()":"06fdde03","nextTokenId()":"75794a3c","owner()":"8da5cb5b","proofOfHuman()":"ee0ac41b","renounceOwnership()":"715018a6","safeBatchTransferFrom(address,address,uint256[],uint256[],bytes)":"2eb2c2d6","safeTransferFrom(address,address,uint256,uint256,bytes)":"f242432a","setApprovalForAll(address,bool)":"a22cb465","setCollectionCreationFee(uint256)":"60bce4b4","setMintingFee(uint256)":"238a4709","setTokenURI(uint256,string)":"162094c4","setURI(string)":"02fe5305","supportsInterface(bytes4)":"01ffc9a7","symbol()":"95d89b41","transferOwnership(address)":"f2fde38b","uri(uint256)":"0e89341c","usedNullifiers(bytes32)":"206137aa","verifier()":"2b7ac3f3","withdraw()":"3ccfd60b"},"id":51}