{"abi":[{"type":"constructor","inputs":[{"name":"identityVerificationHubV2Address","type":"address","internalType":"address"},{"name":"scopeSeed","type":"string","internalType":"string"}],"stateMutability":"nonpayable"},{"type":"function","name":"addressToHumanNullifier","inputs":[{"name":"","type":"address","internalType":"address"}],"outputs":[{"name":"","type":"uint256","internalType":"uint256"}],"stateMutability":"view"},{"type":"function","name":"addressVerified","inputs":[{"name":"","type":"address","internalType":"address"}],"outputs":[{"name":"","type":"bool","internalType":"bool"}],"stateMutability":"view"},{"type":"function","name":"emailNullifierToAddress","inputs":[{"name":"","type":"bytes32","internalType":"bytes32"}],"outputs":[{"name":"","type":"address","internalType":"address"}],"stateMutability":"view"},{"type":"function","name":"emailNullifierToHumanNullifier","inputs":[{"name":"","type":"bytes32","internalType":"bytes32"}],"outputs":[{"name":"","type":"uint256","internalType":"uint256"}],"stateMutability":"view"},{"type":"function","name":"emailNullifierVerified","inputs":[{"name":"","type":"bytes32","internalType":"bytes32"}],"outputs":[{"name":"","type":"bool","internalType":"bool"}],"stateMutability":"view"},{"type":"function","name":"getAddressForEmail","inputs":[{"name":"emailNullifier","type":"bytes32","internalType":"bytes32"}],"outputs":[{"name":"","type":"address","internalType":"address"}],"stateMutability":"view"},{"type":"function","name":"getConfigId","inputs":[{"name":"","type":"bytes32","internalType":"bytes32"},{"name":"","type":"bytes32","internalType":"bytes32"},{"name":"","type":"bytes","internalType":"bytes"}],"outputs":[{"name":"","type":"bytes32","internalType":"bytes32"}],"stateMutability":"view"},{"type":"function","name":"getHumanForAddress","inputs":[{"name":"user","type":"address","internalType":"address"}],"outputs":[{"name":"","type":"uint256","internalType":"uint256"}],"stateMutability":"view"},{"type":"function","name":"getHumanForEmail","inputs":[{"name":"emailNullifier","type":"bytes32","internalType":"bytes32"}],"outputs":[{"name":"","type":"uint256","internalType":"uint256"}],"stateMutability":"view"},{"type":"function","name":"hasHumanClaimedEvent","inputs":[{"name":"humanNullifier","type":"uint256","internalType":"uint256"},{"name":"eventName","type":"string","internalType":"string"}],"outputs":[{"name":"","type":"bool","internalType":"bool"}],"stateMutability":"view"},{"type":"function","name":"humanUsedForEvent","inputs":[{"name":"","type":"uint256","internalType":"uint256"},{"name":"","type":"string","internalType":"string"}],"outputs":[{"name":"","type":"bool","internalType":"bool"}],"stateMutability":"view"},{"type":"function","name":"isAddressVerified","inputs":[{"name":"user","type":"address","internalType":"address"}],"outputs":[{"name":"","type":"bool","internalType":"bool"}],"stateMutability":"view"},{"type":"function","name":"isEmailNullifierVerified","inputs":[{"name":"emailNullifier","type":"bytes32","internalType":"bytes32"}],"outputs":[{"name":"","type":"bool","internalType":"bool"}],"stateMutability":"view"},{"type":"function","name":"mintmarksContract","inputs":[],"outputs":[{"name":"","type":"address","internalType":"address"}],"stateMutability":"view"},{"type":"function","name":"onVerificationSuccess","inputs":[{"name":"output","type":"bytes","internalType":"bytes"},{"name":"userData","type":"bytes","internalType":"bytes"}],"outputs":[],"stateMutability":"nonpayable"},{"type":"function","name":"owner","inputs":[],"outputs":[{"name":"","type":"address","internalType":"address"}],"stateMutability":"view"},{"type":"function","name":"renounceOwnership","inputs":[],"outputs":[],"stateMutability":"nonpayable"},{"type":"function","name":"scope","inputs":[],"outputs":[{"name":"","type":"uint256","internalType":"uint256"}],"stateMutability":"view"},{"type":"function","name":"setMintmarksContract","inputs":[{"name":"_mintmarks","type":"address","internalType":"address"}],"outputs":[],"stateMutability":"nonpayable"},{"type":"function","name":"transferOwnership","inputs":[{"name":"newOwner","type":"address","internalType":"address"}],"outputs":[],"stateMutability":"nonpayable"},{"type":"function","name":"verificationConfig","inputs":[],"outputs":[{"name":"olderThanEnabled","type":"bool","internalType":"bool"},{"name":"olderThan","type":"uint256","internalType":"uint256"},{"name":"forbiddenCountriesEnabled","type":"bool","internalType":"bool"}],"stateMutability":"view"},{"type":"function","name":"verificationConfigId","inputs":[],"outputs":[{"name":"","type":"bytes32","internalType":"bytes32"}],"stateMutability":"view"},{"type":"function","name":"verifyAndConsumeHuman","inputs":[{"name":"emailNullifier","type":"bytes32","internalType":"bytes32"},{"name":"minter","type":"address","internalType":"address"},{"name":"eventName","type":"string","internalType":"string"}],"outputs":[{"name":"humanNullifier","type":"uint256","internalType":"uint256"}],"stateMutability":"nonpayable"},{"type":"function","name":"verifySelfProof","inputs":[{"name":"proofPayload","type":"bytes","internalType":"bytes"},{"name":"userContextData","type":"bytes","internalType":"bytes"}],"outputs":[],"stateMutability":"nonpayable"},{"type":"event","name":"HumanConsumed","inputs":[{"name":"humanNullifier","type":"uint256","indexed":true,"internalType":"uint256"},{"name":"emailNullifier","type":"bytes32","indexed":true,"internalType":"bytes32"},{"name":"eventName","type":"string","indexed":false,"internalType":"string"},{"name":"minter","type":"address","indexed":false,"internalType":"address"}],"anonymous":false},{"type":"event","name":"HumanVerified","inputs":[{"name":"humanNullifier","type":"uint256","indexed":true,"internalType":"uint256"},{"name":"emailNullifier","type":"bytes32","indexed":true,"internalType":"bytes32"},{"name":"userAddress","type":"address","indexed":true,"internalType":"address"}],"anonymous":false},{"type":"event","name":"MintmarksContractUpdated","inputs":[{"name":"newContract","type":"address","indexed":true,"internalType":"address"}],"anonymous":false},{"type":"event","name":"OwnershipTransferred","inputs":[{"name":"previousOwner","type":"address","indexed":true,"internalType":"address"},{"name":"newOwner","type":"address","indexed":true,"internalType":"address"}],"anonymous":false},{"type":"error","name":"EmailNullifierAlreadyVerified","inputs":[]},{"type":"error","name":"EmailNullifierNotVerified","inputs":[]},{"type":"error","name":"HumanAlreadyClaimedEvent","inputs":[]},{"type":"error","name":"InvalidDataFormat","inputs":[]},{"type":"error","name":"MinterAddressMismatch","inputs":[]},{"type":"error","name":"OnlyMintmarksContract","inputs":[]},{"type":"error","name":"OwnableInvalidOwner","inputs":[{"name":"owner","type":"address","internalType":"address"}]},{"type":"error","name":"OwnableUnauthorizedAccount","inputs":[{"name":"account","type":"address","internalType":"address"}]},{"type":"error","name":"UnauthorizedCaller","inputs":[]}],"bytecode":{"object":"0x60a060405234801561000f575f5ffd5b5060405161225438038061225483398101604081905261002e91610b29565b6001600160a01b038216608052338282610050308261004b6101cb565b61021e565b5f5550506001600160a01b03811661008257604051631e4fbdf760e01b81525f60048201526024015b60405180910390fd5b61008b816102d5565b506100fa60405180606001604052805f81526020015f6001600160401b038111156100b8576100b8610b15565b6040519080825280602002602001820160405280156100eb57816020015b60608152602001906001900390816100d65790505b5081525f602090910152610326565b80516002805491151560ff199283161781556020830151600355604083015160048054911515919093161782556060830151909161013a916005916109c2565b5060808201516101509060078301906003610a00565b50506040516309ddb09160e01b81526001600160a01b03841691506309ddb0919061018090600290600401610bf8565b6020604051808303815f875af115801561019c573d5f5f3e3d5ffd5b505050506040513d601f19601f820116820180604052508101906101c09190610c7f565b600a5550610d959050565b5f4661a4ec8190036101f25773f134707a4c4a3a76b8410fc0294d620a7c34158191505090565b8062aa044c0361021757730a782f7f9f8aac6e0bacaf3cd4aa292c3275c6f291505090565b5f91505090565b5f6001600160a01b03821661023457505f6102ce565b5f61023f8584610398565b90505f61024b85610457565b604080518082018252848152602081018390529051632b0aac7f60e11b81529192506001600160a01b0386169163561558fe9161028a91600401610c96565b602060405180830381865afa1580156102a5573d5f5f3e3d5ffd5b505050506040513d601f19601f820116820180604052508101906102c99190610c7f565b925050505b9392505050565b600180546001600160a01b038381166001600160a01b0319831681179093556040519116919082907f8be0079c531659141344cd1fd0a4f28419497f9722a3daafe3b4186f6b6457e0905f90a35050565b61032e610a8a565b610336610ac5565b6040838101805115158352805115156020808501919091529051151583830152815160a0810183528551151581528551818301529085018051511515928201929092529051606082019061038990610568565b81526020019190915292915050565b5f806103a384610728565b90505f6103ba6103b58383601f610902565b610457565b90505f6103cd6103b584601f602a610902565b604080518082018252848152602081018390529051632b0aac7f60e11b81529192506001600160a01b0387169163561558fe9161040c91600401610c96565b602060405180830381865afa158015610427573d5f5f3e3d5ffd5b505050506040513d601f19601f8201168201806040525081019061044b9190610c7f565b93505050505b92915050565b5f5f829050601f815111156104bc5760405162461bcd60e51b815260206004820152602560248201527f537472696e6720746f6f206c6f6e6720666f7220426967496e7420636f6e76656044820152643939b4b7b760d91b6064820152608401610079565b5f805b825181101561056057607f8382815181106104dc576104dc610cc6565b016020015160f81c11156105325760405162461bcd60e51b815260206004820152601c60248201527f4e6f6e2d415343494920636861726163746572206465746563746564000000006044820152606401610079565b82818151811061054457610544610cc6565b60209101015160f81c60089290921b91909117906001016104bf565b509392505050565b610570610ae3565b601f600460605f5b8551811015610643575f86828151811061059457610594610cc6565b6020026020010151905080516003146106155760405162461bcd60e51b815260206004820152603760248201527f496e76616c696420636f756e74727920636f64653a206d75737420626520657860448201527f6163746c7920332063686172616374657273206c6f6e670000000000000000006064820152608401610079565b8281604051602001610628929190610cf1565b60408051601f19818403018152919052925050600101610578565b508051835f8160016106558286610d21565b61065f9190610d34565b6106699190610d47565b90505f5b818110801561067b57508581105b1561071c575f805b848110156106f0575f816106978588610d66565b6106a19190610d21565b9050868110156106e7575f8882815181106106be576106be610cc6565b016020015160f81c90505f6106d4846008610d66565b90506106e282821b86610d21565b945050505b50600101610683565b508089836004811061070457610704610cc6565b6020020152508061071481610d7d565b91505061066d565b50505050505050919050565b604080518082018252601081526f181899199a1a9b1b9c1cb0b131b232b360811b60208201528151602a80825260608281019094526001600160a01b03851692915f91602082018180368337019050509050600360fc1b815f8151811061079157610791610cc6565b60200101906001600160f81b03191690815f1a905350600f60fb1b816001815181106107bf576107bf610cc6565b60200101906001600160f81b03191690815f1a9053505f5b60148110156108f957826004856107ef84600c610d21565b602081106107ff576107ff610cc6565b1a60f81b6001600160f81b031916901c60f81c60ff168151811061082557610825610cc6565b01602001516001600160f81b03191682610840836002610d66565b61084b906002610d21565b8151811061085b5761085b610cc6565b60200101906001600160f81b03191690815f1a905350828461087e83600c610d21565b6020811061088e5761088e610cc6565b825191901a600f169081106108a5576108a5610cc6565b01602001516001600160f81b031916826108c0836002610d66565b6108cb906003610d21565b815181106108db576108db610cc6565b60200101906001600160f81b03191690815f1a9053506001016107d7565b50949350505050565b6060835f6109108585610d34565b6001600160401b0381111561092757610927610b15565b6040519080825280601f01601f191660200182016040528015610951576020820181803683370190505b509050845b848110156109b85782818151811061097057610970610cc6565b01602001516001600160f81b0319168261098a8884610d34565b8151811061099a5761099a610cc6565b60200101906001600160f81b03191690815f1a905350600101610956565b5095945050505050565b82600481019282156109f0579160200282015b828111156109f05782518255916020019190600101906109d5565b506109fc929150610b01565b5090565b6001830191839082156109f0579160200282015f5b83821115610a5157835183826101000a81548160ff02191690831515021790555092602001926001016020815f01049283019260010302610a15565b8015610a7d5782816101000a81549060ff02191690556001016020815f01049283019260010302610a51565b50506109fc929150610b01565b6040518060a001604052805f151581526020015f81526020015f15158152602001610ab3610ae3565b8152602001610ac0610ac5565b905290565b60405180606001604052806003906020820280368337509192915050565b60405180608001604052806004906020820280368337509192915050565b5b808211156109fc575f8155600101610b02565b634e487b7160e01b5f52604160045260245ffd5b5f5f60408385031215610b3a575f5ffd5b82516001600160a01b0381168114610b50575f5ffd5b60208401519092506001600160401b03811115610b6b575f5ffd5b8301601f81018513610b7b575f5ffd5b80516001600160401b03811115610b9457610b94610b15565b604051601f8201601f19908116603f011681016001600160401b0381118282101715610bc257610bc2610b15565b604052818152828201602001871015610bd9575f5ffd5b8160208401602083015e5f602083830101528093505050509250929050565b815460ff908116151582526001830154602083015260028301541615156040820152610140810160608201600384015f5b6004811015610c48578154835260209092019160019182019101610c29565b505050600783015460ff808216151560e0850152600882901c8116151561010085015260109190911c161515610120830152610451565b5f60208284031215610c8f575f5ffd5b5051919050565b6040810181835f5b6002811015610cbd578151835260209283019290910190600101610c9e565b50505092915050565b634e487b7160e01b5f52603260045260245ffd5b5f81518060208401855e5f93019283525090919050565b5f610d05610cff8386610cda565b84610cda565b949350505050565b634e487b7160e01b5f52601160045260245ffd5b8082018082111561045157610451610d0d565b8181038181111561045157610451610d0d565b5f82610d6157634e487b7160e01b5f52601260045260245ffd5b500490565b808202811582820484141761045157610451610d0d565b5f60018201610d8e57610d8e610d0d565b5060010190565b6080516114a0610db45f395f818161044f015261086301526114a05ff3fe608060405234801561000f575f5ffd5b5060043610610153575f3560e01c8063975098e9116100bf578063ca36e09411610079578063ca36e09414610380578063d161802b1461039f578063da9dd8bf146103b2578063ee70a5b7146103dd578063f2fde38b146103fc578063ff6025c71461040f575f5ffd5b8063975098e9146102e95780639d4240d6146102fc578063ada1b31914610324578063b315c5651461033c578063bb4437441461034f578063c281fc1814610358575f5ffd5b80637ad35bae116101105780637ad35bae1461024057806382da7a95146102805780638d2d8d6a146102935780638da5cb5b146102a657806394cf5f03146102b757806396b0805a146102ca575f5ffd5b8063037b410e146101575780631bdf79741461019357806345fca5be146101e157806355462c4e146102035780636e62d0a814610225578063715018a614610236575b5f5ffd5b60025460035460045461016f9260ff90811692911683565b60408051931515845260208401929092521515908201526060015b60405180910390f35b6101d16101a1366004610cc7565b601160209081525f9283526040909220815180830184018051928152908401929093019190912091525460ff1681565b604051901515815260200161018a565b6101d16101ef366004610d1d565b5f908152600e602052604090205460ff1690565b6101d1610211366004610d4f565b60106020525f908152604090205460ff1681565b5f545b60405190815260200161018a565b61023e610431565b005b61026861024e366004610d1d565b5f908152600d60205260409020546001600160a01b031690565b6040516001600160a01b03909116815260200161018a565b600b54610268906001600160a01b031681565b61023e6102a1366004610d8d565b610444565b6001546001600160a01b0316610268565b61023e6102c5366004610d4f565b6104b3565b6102286102d8366004610d4f565b600f6020525f908152604090205481565b6101d16102f7366004610e2a565b610504565b61022861030a366004610d4f565b6001600160a01b03165f908152600f602052604090205490565b610228610332366004610e71565b600a549392505050565b61022861034a366004610ebc565b61053d565b610228600a5481565b610268610366366004610d1d565b600d6020525f90815260409020546001600160a01b031681565b61022861038e366004610d1d565b5f908152600c602052604090205490565b61023e6103ad366004610f11565b610768565b6101d16103c0366004610d4f565b6001600160a01b03165f9081526010602052604090205460ff1690565b6102286103eb366004610d1d565b600c6020525f908152604090205481565b61023e61040a366004610d4f565b61090b565b6101d161041d366004610d1d565b600e6020525f908152604090205460ff1681565b610439610948565b6104425f610975565b565b336001600160a01b037f0000000000000000000000000000000000000000000000000000000000000000161461048d57604051635c427cd960e01b815260040160405180910390fd5b5f828060200190518101906104a291906110f2565b90506104ae81836109c6565b505050565b6104bb610948565b600b80546001600160a01b0319166001600160a01b0383169081179091556040517f1471b68b966e592c6f770e9dec5c0d9cce842dcee9669082ad0912394f6d9620905f90a250565b5f83815260116020526040808220905161052190859085906112b2565b9081526040519081900360200190205460ff1690509392505050565b600b545f906001600160a01b0316331461056957604051620df58760e51b815260040160405180910390fd5b5f61057386610aa7565b60405160200161058391906112c1565b60408051601f1981840301815291815281516020808401919091205f818152600e909252919020549192509060ff161580156105d757506001600160a01b0386165f9081526010602052604090205460ff16155b156105f557604051631c879a7960e21b815260040160405180910390fd5b5f818152600e602052604090205460ff1615610620575f818152600c6020526040902054925061063b565b6001600160a01b0386165f908152600f602052604090205492505b825f0361068f5760405162461bcd60e51b815260206004820152601d60248201527f4e6f2068756d616e20666f722061646472657373206f7220656d61696c00000060448201526064015b60405180910390fd5b5f838152601160205260409081902090516106ad90879087906112b2565b9081526040519081900360200190205460ff16156106dd5760405162e57c4f60e51b815260040160405180910390fd5b600160115f8581526020019081526020015f2086866040516107009291906112b2565b908152604051908190036020018120805492151560ff1990931692909217909155879084907f2101ebd2777875bd9217488b44952210ea29c836c82689bdbb62a6118d2166c59061075690899089908c906112e5565b60405180910390a35050949350505050565b602083101561078a5760405163a512e2ff60e01b815260040160405180910390fd5b60408110156107ac5760405163a512e2ff60e01b815260040160405180910390fd5b83355f6107bc6020828587611325565b6107c59161134c565b90505f6107d6604060208688611325565b6107df9161134c565b90505f6107ef8560408189611325565b8080601f0160208091040260200160405190810160405280939291908181526020018383808284375f920182905250600a5494955093925061082f915050565b90505f60025f60081b5f548c8c60405160200161085095949392919061136a565b60405160208183030381529060405290507f00000000000000000000000000000000000000000000000000000000000000006001600160a01b031663f7e83aee82848b8b6040516020016108a6939291906113a4565b6040516020818303038152906040526040518363ffffffff1660e01b81526004016108d29291906113eb565b5f604051808303815f87803b1580156108e9575f5ffd5b505af11580156108fb573d5f5f3e3d5ffd5b5050505050505050505050505050565b610913610948565b6001600160a01b03811661093c57604051631e4fbdf760e01b81525f6004820152602401610686565b61094581610975565b50565b6001546001600160a01b031633146104425760405163118cdaa760e01b8152336004820152602401610686565b600180546001600160a01b038381166001600160a01b0319831681179093556040519116919082907f8be0079c531659141344cd1fd0a4f28419497f9722a3daafe3b4186f6b6457e0905f90a35050565b6040808301516020808501518451858301205f818152600e90935293909120549192909160ff1615610a0b57604051631aaf55a560e21b815260040160405180910390fd5b5f818152600c60209081526040808320869055600d825280832080546001600160a01b0319166001600160a01b038716908117909155600e8352818420805460ff199081166001908117909255828652600f85528386208990556010909452828520805490941617909255519091839186917f0bf1c7318b6e76e87e2ad3fc10adf68c1e02016071ad247e13b0eeaef3386cca91a45050505050565b604080518082018252601081526f181899199a1a9b1b9c1cb0b131b232b360811b6020820152815182815260608181018452925f91906020820181803683370190505090505f5b6020811015610bf157826004868360208110610b0c57610b0c611418565b1a60f81b6001600160f81b031916901c60f81c60ff1681518110610b3257610b32611418565b01602001516001600160f81b03191682610b4d836002611440565b81518110610b5d57610b5d611418565b60200101906001600160f81b03191690815f1a90535082858260208110610b8657610b86611418565b825191901a600f16908110610b9d57610b9d611418565b01602001516001600160f81b03191682610bb8836002611440565b610bc3906001611457565b81518110610bd357610bd3611418565b60200101906001600160f81b03191690815f1a905350600101610aee565b509392505050565b634e487b7160e01b5f52604160045260245ffd5b6040516101a081016001600160401b0381118282101715610c3057610c30610bf9565b60405290565b604051601f8201601f191681016001600160401b0381118282101715610c5e57610c5e610bf9565b604052919050565b5f6001600160401b03821115610c7e57610c7e610bf9565b50601f01601f191660200190565b5f610c9e610c9984610c66565b610c36565b9050828152838383011115610cb1575f5ffd5b828260208301375f602084830101529392505050565b5f5f60408385031215610cd8575f5ffd5b8235915060208301356001600160401b03811115610cf4575f5ffd5b8301601f81018513610d04575f5ffd5b610d1385823560208401610c8c565b9150509250929050565b5f60208284031215610d2d575f5ffd5b5035919050565b80356001600160a01b0381168114610d4a575f5ffd5b919050565b5f60208284031215610d5f575f5ffd5b610d6882610d34565b9392505050565b5f82601f830112610d7e575f5ffd5b610d6883833560208501610c8c565b5f5f60408385031215610d9e575f5ffd5b82356001600160401b03811115610db3575f5ffd5b610dbf85828601610d6f565b92505060208301356001600160401b03811115610dda575f5ffd5b610d1385828601610d6f565b5f5f83601f840112610df6575f5ffd5b5081356001600160401b03811115610e0c575f5ffd5b602083019150836020828501011115610e23575f5ffd5b9250929050565b5f5f5f60408486031215610e3c575f5ffd5b8335925060208401356001600160401b03811115610e58575f5ffd5b610e6486828701610de6565b9497909650939450505050565b5f5f5f60608486031215610e83575f5ffd5b833592506020840135915060408401356001600160401b03811115610ea6575f5ffd5b610eb286828701610d6f565b9150509250925092565b5f5f5f5f60608587031215610ecf575f5ffd5b84359350610edf60208601610d34565b925060408501356001600160401b03811115610ef9575f5ffd5b610f0587828801610de6565b95989497509550505050565b5f5f5f5f60408587031215610f24575f5ffd5b84356001600160401b03811115610f39575f5ffd5b610f4587828801610de6565b90955093505060208501356001600160401b03811115610ef9575f5ffd5b5f82601f830112610f72575f5ffd5b610f7c6080610c36565b806080840185811115610f8d575f5ffd5b845b81811015610fa7578051845260209384019301610f8f565b509095945050505050565b5f82601f830112610fc1575f5ffd5b8151610fcf610c9982610c66565b818152846020838601011115610fe3575f5ffd5b8160208501602083015e5f918101602001919091529392505050565b5f82601f83011261100e575f5ffd5b81516001600160401b0381111561102757611027610bf9565b8060051b61103760208201610c36565b91825260208185018101929081019086841115611052575f5ffd5b6020860192505b838310156110975782516001600160401b03811115611076575f5ffd5b611085886020838a0101610fb2565b83525060209283019290910190611059565b9695505050505050565b5f82601f8301126110b0575f5ffd5b6110ba6060610c36565b8060608401858111156110cb575f5ffd5b845b81811015610fa757805180151581146110e4575f5ffd5b8452602093840193016110cd565b5f60208284031215611102575f5ffd5b81516001600160401b03811115611117575f5ffd5b82016102408185031215611129575f5ffd5b611131610c0d565b8151815260208083015190820152604080830151908201526111568560608401610f63565b606082015260e08201516001600160401b03811115611173575f5ffd5b61117f86828501610fb2565b6080830152506101008201516001600160401b0381111561119e575f5ffd5b6111aa86828501610fff565b60a0830152506101208201516001600160401b038111156111c9575f5ffd5b6111d586828501610fb2565b60c0830152506101408201516001600160401b038111156111f4575f5ffd5b61120086828501610fb2565b60e0830152506101608201516001600160401b0381111561121f575f5ffd5b61122b86828501610fb2565b610100830152506101808201516001600160401b0381111561124b575f5ffd5b61125786828501610fb2565b610120830152506101a08201516001600160401b03811115611277575f5ffd5b61128386828501610fb2565b610140830152506101c08201516101608201526112a4856101e084016110a1565b610180820152949350505050565b818382375f9101908152919050565b61060f60f31b81525f82518060208501600285015e5f920160020191825250919050565b60408152826040820152828460608301375f60608483018101919091526001600160a01b03929092166020820152601f909201601f191690910101919050565b5f5f85851115611333575f5ffd5b8386111561133f575f5ffd5b5050820193919092039150565b80356020831015611364575f19602084900360031b1b165b92915050565b60f886901b6001600160f81b031916815260ff198516600182015260208101849052818360408301375f9101604001908152949350505050565b838152818360208301375f910160200190815292915050565b5f81518084528060208401602086015e5f602082860101526020601f19601f83011685010191505092915050565b604081525f6113fd60408301856113bd565b828103602084015261140f81856113bd565b95945050505050565b634e487b7160e01b5f52603260045260245ffd5b634e487b7160e01b5f52601160045260245ffd5b80820281158282048414176113645761136461142c565b808201808211156113645761136461142c56fea2646970667358221220b284ac84aaafe85146ce0829f0654e1c59fa1563b82c99a759d247e1176fee2d64736f6c634300081c0033","linkReferences":{}},"methodIdentifiers":{"addressToHumanNullifier(address)":"96b0805a","addressVerified(address)":"55462c4e","emailNullifierToAddress(bytes32)":"c281fc18","emailNullifierToHumanNullifier(bytes32)":"ee70a5b7","emailNullifierVerified(bytes32)":"ff6025c7","getAddressForEmail(bytes32)":"7ad35bae","getConfigId(bytes32,bytes32,bytes)":"ada1b319","getHumanForAddress(address)":"9d4240d6","getHumanForEmail(bytes32)":"ca36e094","hasHumanClaimedEvent(uint256,string)":"975098e9","humanUsedForEvent(uint256,string)":"1bdf7974","isAddressVerified(address)":"da9dd8bf","isEmailNullifierVerified(bytes32)":"45fca5be","mintmarksContract()":"82da7a95","onVerificationSuccess(bytes,bytes)":"8d2d8d6a","owner()":"8da5cb5b","renounceOwnership()":"715018a6","scope()":"6e62d0a8","setMintmarksContract(address)":"94cf5f03","transferOwnership(address)":"f2fde38b","verificationConfig()":"037b410e","verificationConfigId()":"bb443744","verifyAndConsumeHuman(bytes32,address,string)":"b315c565","verifySelfProof(bytes,bytes)":"d161802b"},"id":52}